S010000050726F69656374322E737265630C
S11300000C949F000C94BC000C94BC000C94BC0099
S11300100C94A8010C94BC000C94BC000C94BC007F
S11300200C94BC000C94BC000C94BC000C94BC005C
S11300300C94BC000C94BC000C94BC000C94BC004C
S11300400C94BC000C94BC000C94BC000C94BC003C
S11300500C94BC0007010B010F01130117011B01D4
S11300601F01230127012B018701870187018701D4
S1130070870187018701870187018701870187013C
S1130080870187018701870187018701870187012C
S1130090870187018701870187018701870187011C
S11300A08701870187018701870187018701830110
S11300B087018701870187018701870187018701FC
S11300C087018701870187018701870187018701EC
S11300D08701870187012F01330137013B013F016C
S11300E04301870173018701870187017701870134
S11300F0870187017B0187018701870187017F01D0
S113010087018701870187018701870187018701AB
S113011087018701870157014F0187015B015F0157
S113012053014B0187016B018701870187016F012F
S11301308701870187018701470163016701112452
S11301401FBECFE5D8E0DEBFCDBF10E0A0E6B0E033
S1130150E2E5FFE102C005900D92A836B107D9F798
S113016020E0A8E6B0E001C01D92A039B207E1F793
S11301700E94120F0C94A70F0C9400008BE683BF0F
S113018087B3886087BB80E88CBF089582EA8FBDFF
S11301908BE18EBD8FEF90E097BD86BD80E890E047
S11301A09BBD8ABD99BD88BD81B3806281BB81B38B
S11301B0806181BB089585B58B6085BD8DE783BD66
S11301C089B7806889BF089580E487B987E886B9CC
S11301D0089597B1907E8770892B87B986B1806422
S11301E086B93699FECF84B195B108959C019BB32D
S11301F0907F9BBB85B315BA462F50E04537510518
S113020008F085C0FA01E65DFF4F0C948D0F85B3AD
S11302108F6385BB7EC085B3866085BB7AC085B39A
S11302208B6585BB76C085B38F6485BB72C085B38F
S1130230866685BB6EC085B38D6685BB6AC085B393
S11302408D6785BB66C085B3876085BB62C085B397
S11302508F6785BB5EC085B3876685BB5AC085B38F
S1130260876785BB56C085B38C6785BB52C085B391
S1130270896385BB4EC085B38E6585BB4AC085B393
S1130280896785BB46C085B3816785BB42C085B39A
S1130290806585BB3EC085B38F6685BB3AC085B398
S11302A08C6785BB36C085B3816785BB32C085B397
S11302B0876785BB2EC085B38E6585BB2AC085B391
S11302C0896785BB26C085B38D6685BB22C085B38F
S11302D0886785BB1EC085B3846085BB1AC085B39F
S11302E0846585BB16C085B3866785BB12C085B39C
S11302F0886385BB0EC085B3836785BB0AC085B39D
S11303008E6385BB06C085B3806485BB02C085B39C
S113031085BB2230310581F024F42130310541F0D0
S113032008952330310561F02430310569F00895D2
S11303308BB381608BBB08958BB382608BBB0895B4
S11303408BB384608BBB08958BB388608BBB08959B
S11303501F920F920FB60F9211242F933F934F9336
S11303605F936F937F938F939F93AF93BF93EF9319
S1130370FF9380917C0090917D00019690937D0085
S113038080937C00883E934024F010927D0010926C
S11303907C0080917E0090917F00892BA9F0809150
S11303A07C0090917D00853691053CF483B7806292
S11303B083BF8FB5806A8FBD0DC083B78F7D83BF28
S11303C08FB58F758FBD06C083B7806283BF8FB52D
S11303D0806A8FBD80917A0090917B00892B09F40B
S11303E06AC080917C0090917D00843F914009F027
S11303F062C086E00E94E90090938D0080938C0097
S11304006AE070E00E94790FFB0170938B006093A7
S11304108A0020916600309167004FEF429FC0012F
S1130420439F900D112424E630E0B9010E94790F16
S1130430E69FC001E79F900DF69F900D1124B9012E
S11304400E94790F6CBF6091620070916300469FB7
S1130450C001479F900D1124B9010E94790FE091CA
S11304608A00F0918B006E9FC0016F9F900D7E9F5C
S1130470900D1124B9010E94790F7BBD6ABD609172
S1130480640070916500469FC001479F900D112440
S1130490B9010E94790F40918A0050918B00649FAA
S11304A0C001659F900D749F900D1124B9010E94A5
S11304B0790F79BD68BD8091860090918700823064
S11304C0910509F43EC21CF4019749F06DC48330D0
S11304D0910509F40BC3049709F4B7C365C480916B
S11304E08400909185008230910509F4ABC083307B
S11304F0910509F44BC1019709F0ECC18091820088
S113050090918300892B09F466C0809188009091B2
S11305108900019690938900809388008230910528
S1130520E9F01CF4019739F051C08330910549F189
S11305300497D1F14BC0809166009091670068EEFA
S113054073E00E94790FCB016AE070E00E94790F9A
S1130550682F84E090E00E94F6002CC4809166002D
S11305609091670064E670E00E94790FCB016AE025
S113057070E00E94790F682F83E090E00E94F600FB
S113058019C480916600909167002AE030E0B901B7
S11305900E94790FCB01B9010E94790F682F82E084
S11305A090E00E94F60006C4809166009091670076
S11305B06AE070E00E94790F682F81E090E00E9469
S11305C0F6001092890010928800F4C310928900FA
S11305D010928800EFC38091880090918900019661
S11305E090938900809388008230910581F01CF4F7
S11305F0019739F022C08330910579F0049799F07E
S11306001CC060E284E090E00E94F600D3C362E77D
S113061083E090E00E94F600CDC365E682E090E0BE
S11306200E94F600C7C364E681E090E00E94F600F1
S11306301092890010928800BDC310928900109214
S11306408800B8C38091820090918300892B09F4BB
S113065066C08091880090918900019690938900EA
S11306608093880082309105E9F01CF4019739F0F9
S113067051C08330910549F10497D1F14BC0809169
S113068062009091630068EE73E00E94790FCB01E1
S11306906AE070E00E94790F682F84E090E00E9485
S11306A0F60088C3809162009091630064E670E074
S11306B00E94790FCB016AE070E00E94790F682FE5
S11306C083E090E00E94F60075C3809162009091EF
S11306D063002AE030E0B9010E94790FCB01B9012F
S11306E00E94790F682F82E090E00E94F60062C3B6
S11306F080916200909163006AE070E00E94790F3B
S1130700682F81E090E00E94F60010928900109218
S1130710880050C310928900109288004BC38091C6
S113072088009091890001969093890080938800B5
S11307308230910581F01CF4019739F022C0833096
S1130740910579F0049799F01CC067E684E090E085
S11307500E94F6002FC362E783E090E00E94F60057
S113076029C365E682E090E00E94F60023C365E6B3
S113077081E090E00E94F6001092890010928800B7
S113078019C3109289001092880014C380918200CA
S113079090918300892B09F466C080918800909120
S11307A08900019690938900809388008230910596
S11307B0E9F01CF4019739F051C08330910549F1F7
S11307C00497D1F14BC0809164009091650068EE6C
S11307D073E00E94790FCB016AE070E00E94790F08
S11307E0682F84E090E00E94F600E4C280916400E7
S11307F09091650064E670E00E94790FCB016AE095
S113080070E00E94790F682F83E090E00E94F60068
S1130810D1C280916400909165002AE030E0B90172
S11308200E94790FCB01B9010E94790F682F82E0F1
S113083090E00E94F600BEC2809164009091650031
S11308406AE070E00E94790F682F81E090E00E94D6
S1130850F6001092890010928800ACC210928900B0
S113086010928800A7C28091880090918900019617
S113087090938900809388008230910581F01CF464
S1130880019739F022C08330910579F0049799F0EB
S11308901CC062E684E090E00E94F6008BC26CE427
S11308A083E090E00E94F60085C265E582E090E076
S11308B00E94F6007FC265E681E090E00E94F600A7
S11308C0109289001092880075C2109289001092CB
S11308D0880070C28091880090918900019690935D
S11308E08900809388008230910581F01CF401977F
S11308F039F022C08330910579F0049799F01CC037
S113090060E284E090E00E94F60054C262E783E073
S113091090E00E94F6004EC267E682E090E00E94FA
S1130920F60048C262E681E090E00E94F600109270
S11309308900109288003EC21092890010928800AB
S113094039C28091840090918500892B09F497C065
S11309508091820090918300892B09F459C0809181
S11309608800909189000196909389008093880073
S11309708230910581F01CF4019739F044C0833032
S11309809105E1F0049769F13EC060E284E090E0F3
S11309900E94F6000FC2809160009091610064E6AD
S11309A070E00E94790FCB016AE070E00E94790F39
S11309B0682F83E090E00E94F600FCC18091600003
S11309C0909161002AE030E0B9010E94790FCB01D7
S11309D0B9010E94790F682F82E090E00E94F6002E
S11309E0E9C180916000909161006AE070E00E942A
S11309F0790F682F81E090E00E94F6001092890040
S1130A0010928800D7C11092890010928800D2C138
S1130A108091880090918900019690938900809339
S1130A2088008230910581F01CF4019739F022C0CE
S1130A308330910579F0049799F01CC064E684E052
S1130A4090E00E94F600B6C169E683E090E00E945F
S1130A50F600B0C16DE682E090E00E94F600AAC103
S1130A6061E081E090E00E94F6001092890010920B
S1130A708800A0C110928900109288009BC18091C7
S1130A808800909189000196909389008093880052
S1130A908230910581F01CF4019739F022C0833033
S1130AA0910579F0049799F01CC064E684E090E025
S1130AB00E94F6007FC169E683E090E00E94F600A0
S1130AC079C16DE682E090E00E94F60073C16DE6A4
S1130AD081E090E00E94F600109289001092880054
S1130AE069C1109289001092880064C180918400C9
S1130AF0909185008130910519F00297C1F16EC083
S1130B008091880090918900019690938900809348
S1130B1088008230910581F01CF4019739F022C0DD
S1130B208330910579F0049799F01CC060E284E069
S1130B3090E00E94F6003EC160E283E090E00E94F3
S1130B40F60038C160E082E090E00E94F60032C115
S1130B506DE681E090E00E94F60010928900109208
S1130B60880028C1109289001092880023C18091C6
S1130B708800909189000196909389008093880061
S1130B808230910581F01CF4019739F022C0833042
S1130B90910579F0049799F01CC060E284E090E03C
S1130BA00E94F60007C160E083E090E00E94F60036
S1130BB001C166E682E090E00E94F600FBC066E6B2
S1130BC081E090E00E94F600109289001092880063
S1130BD0F1C01092890010928800ECC080918800C6
S1130BE090918900019690938900809388008230C7
S1130BF0910581F01CF4019739F022C083309105EE
S1130C0079F0049799F01CC064E684E090E00E94B7
S1130C10F600D0C061E483E090E00E94F600CAC010
S1130C206DE682E090E00E94F600C4C063E481E0D7
S1130C3090E00E94F6001092890010928800BAC0D9
S1130C401092890010928800B5C080918400909120
S1130C5085008130910519F00297C1F16EC0809131
S1130C608800909189000196909389008093880070
S1130C708230910581F01CF4019739F022C0833051
S1130C80910579F0049799F01CC060E284E090E04B
S1130C900E94F6008FC060E283E090E00E94F600BC
S1130CA089C060E082E090E00E94F60083C06DE6B7
S1130CB081E090E00E94F600109289001092880072
S1130CC079C0109289001092880074C080918800C5
S1130CD090918900019690938900809388008230D6
S1130CE0910581F01CF4019739F022C083309105FD
S1130CF079F0049799F01CC060E284E090E00E94CF
S1130D00F60058C060E083E090E00E94F60052C014
S1130D1066E682E090E00E94F6004CC066E681E060
S1130D2090E00E94F600109289001092880042C060
S1130D3010928900109288003DC0809188009091A3
S1130D4089000196909389008093880082309105F0
S1130D5081F01CF4019739F022C08330910579F0B9
S1130D60049799F01CC063E784E090E00E94F600C9
S1130D7021C064E783E090E00E94F6001BC062E7B4
S1130D8082E090E00E94F60015C062E681E090E007
S1130D900E94F60010928900109288000BC01092F5
S1130DA089001092880006C081E090E0909387004B
S1130DB08093860080B321E0982F947082FD20E018
S1130DC080917900281709F494C191110BC01092F5
S1130DD078001092770010927600109275001092AD
S1130DE07400BCC48091770090917800883E934051
S1130DF008F0B4C48091820090918300009769F454
S1130E004091840050918500452B39F481E090E0B5
S1130E109093850080938400A1C4009769F4409165
S1130E20840050918500452B39F081E090E0909347
S1130E3083008093820092C4019709F08FC480914B
S1130E408600909187008230910509F479C01CF4E2
S1130E50019749F083C48330910509F4C8C004970D
S1130E6009F431C17BC48091840090918500823063
S1130E70910531F18330910509F442C0019709F0DD
S1130E806DC440916600509167003FEF349FC001EC
S1130E90359F900D1124E4E6F0E0BF010E94790F24
S1130EA04091600050916100649FC001659F900D66
S1130EB0749F900D1124BF010E94790F6CBF4EC422
S1130EC040916200509163003FEF349FC001359F11
S1130ED0900D1124E4E6F0E0BF010E94790F4091E7
S1130EE0600050916100649FC001659F900D749FE4
S1130EF0900D1124BF010E94790F7BBD6ABD2EC4E1
S1130F0040916400509165003FEF349FC001359FCC
S1130F10900D1124E4E6F0E0BF010E94790F4091A6
S1130F20600050916100649FC001659F900D749FA3
S1130F30900D1124BF010E94790F79BD68BD0EC4C4
S1130F4040916600509167003FEF349FC001359F88
S1130F50900D1124E4E6F0E0BF010E94790F409166
S1130F60600050916100649FC001659F900D749F63
S1130F70900D1124BF010E94790F6CBF4091620053
S1130F8050916300349FC001359F900D1124BF011F
S1130F900E94790F4091600050916100649FC001EC
S1130FA0659F900D749F900D1124BF010E94790FCD
S1130FB07BBD6ABD4091640050916500349FC001BF
S1130FC0359F900D1124BF010E94790F409160005C
S1130FD050916100649FC001659F900D749F900DB6
S1130FE01124BF010E94790F79BD68BDB7C38091F8
S1130FF08400909185008130910519F0029741F0A9
S1131000ADC381E090E090937B0080937A00A6C307
S113101010927B0010927A00409166005091670014
S11310203FEF349FC001359F900D1124E4E6F0E0BA
S1131030BF010E94790F4091600050916100649F4C
S1131040C001659F900D749F900D1124BF010E94F3
S1131050790F6CBF4091620050916300349FC001CE
S1131060359F900D1124BF010E94790F40916000BB
S113107050916100649FC001659F900D749F900D15
S11310801124BF010E94790F7BBD6ABD40916400A9
S113109050916500349FC001359F900D1124BF010C
S11310A00E94790F4091600050916100649FC001DB
S11310B0659F900D749F900D1124BF010E94790FBC
S11310C079BD68BD4BC380918400909185008130C7
S11310D0910519F0029741F041C381E090E09093AB
S11310E07F0080937E003AC310927F0010927E00AE
S11310F035C3911133C380917700909178000196A4
S11311009093780080937700809177009091780095
S1131110883E934008F48AC180917600811186C18B
S11311208091820090918300009769F4409184003B
S113113050918500452B39F481E090E0909385002F
S1131140809384006BC1009769F4409184005091AE
S11311508500452B39F081E090E0909383008093E3
S113116082005CC1019709F059C180918600909179
S113117087008230910509F479C01CF4019749F085
S11311804DC18330910509F4C8C0049709F431C1F5
S113119045C180918400909185008230910531F1A0
S11311A08330910509F442C0019709F037C1409199
S11311B06600509167003FEF349FC001359F900D4A
S11311C01124E4E6F0E0BF010E94790F4091600031
S11311D050916100649FC001659F900D749F900DB4
S11311E01124BF010E94790F6CBF18C140916200A5
S11311F0509163003FEF349FC001359F900D11243F
S1131200E4E6F0E0BF010E94790F40916000509144
S11312106100649FC001659F900D749F900D11241F
S1131220BF010E94790F7BBD6ABDF8C04091640084
S1131230509165003FEF349FC001359F900D1124FC
S1131240E4E6F0E0BF010E94790F40916000509104
S11312506100649FC001659F900D749F900D1124DF
S1131260BF010E94790F79BD68BDD8C04091660066
S1131270509167003FEF349FC001359F900D1124BA
S1131280E4E6F0E0BF010E94790F409160005091C4
S11312906100649FC001659F900D749F900D11249F
S11312A0BF010E94790F6CBF4091620050916300AE
S11312B0349FC001359F900D1124BF010E94790F06
S11312C04091600050916100649FC001659F900D42
S11312D0749F900D1124BF010E94790F7BBD6ABDDC
S11312E04091640050916500349FC001359F900D7A
S11312F01124BF010E94790F409160005091610058
S1131300649FC001659F900D749F900D1124BF01CF
S11313100E94790F79BD68BD81C08091840090914D
S113132085008130910519F0029741F077C081E082
S113133090E090937B0080937A0070C010927B00C1
S113134010927A0040916600509167003FEF349FFD
S1131350C001359F900D1124E4E6F0E0BF010E9426
S1131360790F4091600050916100649FC001659FB6
S1131370900D749F900D1124BF010E94790F6CBFD2
S11313804091620050916300349FC001359F900DDD
S11313901124BF010E94790F4091600050916100B7
S11313A0649FC001659F900D749F900D1124BF012F
S11313B00E94790F7BBD6ABD409164005091650025
S11313C0349FC001359F900D1124BF010E94790FF5
S11313D04091600050916100649FC001659F900D31
S11313E0749F900D1124BF010E94790F79BD68BDCF
S11313F015C080918400909185008130910519F089
S1131400029741F00BC081E090E090937F008093BD
S11314107E0004C010927F0010927E0081E08093D1
S11314207600109275001092740098C18091760035
S1131430882309F493C180917400909175000196FA
S1131440909375008093740080917400909175005E
S11314508A3F910508F482C18091820090918300B3
S1131460009769F44091840050918500452B39F42C
S113147081E090E090938500809384006BC1009795
S113148069F44091840050918500452B39F081E046
S113149090E090938300809382005CC1019709F0EF
S11314A059C180918600909187008230910509F49A
S11314B079C01CF4019749F04DC18330910509F4BA
S11314C0C8C0049709F431C145C18091840090914A
S11314D085008230910531F18330910509F442C0D1
S11314E0019709F037C140916600509167003FEFC2
S11314F0349FC001359F900D1124E4E6F0E0BF0154
S11315000E94790F4091600050916100649FC00176
S1131510659F900D749F900D1124BF010E94790F57
S11315206CBF18C140916200509163003FEF349F3B
S1131530C001359F900D1124E4E6F0E0BF010E9444
S1131540790F4091600050916100649FC001659FD4
S1131550900D749F900D1124BF010E94790F7BBDE3
S11315606ABDF8C040916400509165003FEF349F1C
S1131570C001359F900D1124E4E6F0E0BF010E9404
S1131580790F4091600050916100649FC001659F94
S1131590900D749F900D1124BF010E94790F79BDA5
S11315A068BDD8C040916600509167003FEF349FFA
S11315B0C001359F900D1124E4E6F0E0BF010E94C4
S11315C0790F4091600050916100649FC001659F54
S11315D0900D749F900D1124BF010E94790F6CBF70
S11315E04091620050916300349FC001359F900D7B
S11315F01124BF010E94790F409160005091610055
S1131600649FC001659F900D749F900D1124BF01CC
S11316100E94790F7BBD6ABD4091640050916500C2
S1131620349FC001359F900D1124BF010E94790F92
S11316304091600050916100649FC001659F900DCE
S1131640749F900D1124BF010E94790F79BD68BD6C
S113165081C080918400909185008130910519F0BA
S1131660029741F077C081E090E090937B008093F3
S11316707A0070C010927B0010927A00409166004C
S1131680509167003FEF349FC001359F900D1124A6
S1131690E4E6F0E0BF010E94790F409160005091B0
S11316A06100649FC001659F900D749F900D11248B
S11316B0BF010E94790F6CBF40916200509163009A
S11316C0349FC001359F900D1124BF010E94790FF2
S11316D04091600050916100649FC001659F900D2E
S11316E0749F900D1124BF010E94790F7BBD6ABDC8
S11316F04091640050916500349FC001359F900D66
S11317001124BF010E94790F409160005091610043
S1131710649FC001659F900D749F900D1124BF01BB
S11317200E94790F79BD68BD15C0809184009091A5
S113173085008130910519F0029741F00BC081E0DA
S113174090E090937F0080937E0004C010927F000D
S113175010927E001092750010927400209379000C
S113176080B321E0982F987083FD20E0809173006E
S1131770281709F4D5C091110BC010927200109271
S113178071001092700010926F0010926E0073C27C
S11317908091710090917200883E934008F06BC272
S11317A08091820090918300892B09F45FC080911D
S11317B086009091870082309105E1F18330910594
S11317C009F446C0019709F056C2E0918400F091F3
S11317D08500E130F10569F480916600909167001D
S11317E0019665E670E00E94790F909367008093FC
S11317F06600E230F10569F4809162009091630023
S1131800019665E670E00E94790F909363008093DF
S11318106200339709F02FC28091640090916500B3
S1131820019665E670E00E94790F909365008093BD
S1131830640021C28091600090916100019665E688
S113184070E00E94790F909361008093600013C24E
S11318508091800090918100019665E670E00E947D
S1131860790F909381008093800005C28091840059
S113187090918500009709F440C0019690938500EB
S11318808093840040918600509187004230510536
S1131890B1F024F44130510541F0EDC1433051051C
S11318A0C1F044305105F9F0E6C104970CF4E3C1EA
S11318B081E090E09093850080938400DCC10297DE
S11318C00CF4D9C181E090E090938500809384006A
S11318D0D2C103970CF4CFC181E090E090938500CE
S11318E080938400C8C103970CF4C5C181E090E0E3
S11318F09093850080938400BEC18091860090916E
S113190087000196909387008093860005970CF4D6
S1131910B2C181E090E09093870080938600ABC1D0
S11319209111A9C1809171009091720001969093D8
S11319307200809371008091710090917200883ED2
S1131940934008F4C5C0809170008111C1C080919A
S1131950820090918300892B09F45FC080918600F6
S11319609091870082309105E1F18330910509F46B
S113197046C0019709F0A4C0E0918400F09185006D
S1131980E130F10569F48091660090916700019659
S113199065E670E00E94790F90936700809366007B
S11319A0E230F10569F48091620090916300019640
S11319B065E670E00E94790F909363008093620063
S11319C0339709F07DC08091640090916500019681
S11319D065E670E00E94790F90936500809364003F
S11319E06FC08091600090916100019665E670E09F
S11319F00E94790F909361008093600061C0809190
S1131A00800090918100019665E670E00E94790F54
S1131A10909381008093800053C0809184009091C2
S1131A2085000097E1F101969093850080938400EE
S1131A30409186005091870042305105A9F024F46A
S1131A404130510541F03CC043305105B1F04430C0
S1131A505105E1F035C004979CF181E090E090934A
S1131A608500809384002CC0029754F181E090E0BB
S1131A70909385008093840023C003970CF181E048
S1131A8090E090938500809384001AC00397C4F07B
S1131A9081E090E0909385008093840011C0809150
S1131AA0860090918700019690938700809386002A
S1131AB0059734F081E090E090938700809386004E
S1131AC081E08093700010926F0010926E00D3C07A
S1131AD080917000882309F4CEC080916E009091AB
S1131AE06F00019690936F0080936E0080916E005A
S1131AF090916F008A3F910508F4BDC080918200E7
S1131B0090918300892B09F45FC0809186009091A5
S1131B10870082309105E1F18330910509F446C0D4
S1131B20019709F0A4C0E0918400F0918500E130B0
S1131B30F10569F48091660090916700019665E66D
S1131B4070E00E94790F9093670080936600E23002
S1131B50F10569F48091620090916300019665E655
S1131B6070E00E94790F9093630080936200339732
S1131B7009F07DC08091640090916500019665E64E
S1131B8070E00E94790F90936500809364006FC0A9
S1131B908091600090916100019665E670E00E947A
S1131BA0790F909361008093600061C08091800000
S1131BB090918100019665E670E00E94790F909300
S1131BC081008093800053C08091840090918500AF
S1131BD00097E1F1019690938500809384004091F1
S1131BE086005091870042305105A9F024F4413019
S1131BF0510541F03CC043305105B1F0443051052A
S1131C00E1F035C004979CF181E090E09093850069
S1131C10809384002CC0029754F181E090E090936B
S1131C2085008093840023C003970CF181E090E049
S1131C3090938500809384001AC00397C4F081E0D8
S1131C4090E0909385008093840011C08091860079
S1131C509091870001969093870080938600059762
S1131C6034F081E090E09093870080938600109296
S1131C706F0010926E002093730096B381E0292FB9
S1131C80247092FD80E090916D008917D1F12111AB
S1131C900BC010926C0010926B0010926A001092AC
S1131CA0690010926800ABC020916B0030916C0009
S1131CB0283E334008F0A3C0209182003091830075
S1131CC0232B29F0109283001092820098C0209157
S1131CD0840030918500232B29F010928500109206
S1131CE084008DC020918600309187002230310518
S1131CF00CF485C021E030E0309387002093860007
S1131D007EC021117CC020916B0030916C002F5F4C
S1131D103F4F30936C0020936B0020916B00309107
S1131D206C00283E334078F190916A0091112BC0E9
S1131D302091820030918300232B29F0109283009C
S1131D401092820018C02091840030918500232BCA
S1131D5029F010928500109284000DC02091860015
S1131D60309187002230310534F021E030E03093A7
S1131D7087002093860091E090936A001092690096
S1131D80109268003CC090916A009923C1F120919F
S1131D906800309169002F5F3F4F309369002093B2
S1131DA0680020916800309169002A3F310538F1BC
S1131DB02091820030918300232B29F0109283001C
S1131DC01092820018C02091840030918500232B4A
S1131DD029F010928500109284000DC02091860095
S1131DE0309187002230310534F021E030E0309327
S1131DF087002093860010926900109268008093F7
S1131E006D00FF91EF91BF91AF919F918F917F9161
S1131E106F915F914F913F912F910F900FBE0F9053
S1131E201F9018958AB3806F8ABB84B3CFEFC4BB6D
S1131E300E94BE000E94C6000E94DB000E94E400D3
S1131E402091660030916700C29FC001C39F900D2E
S1131E50112424E630E0B9010E94790F409160001A
S1131E6050916100649FC001659F900D749F900D17
S1131E701124B9010E94790F6CBF40916200509106
S1131E806300C49FC001C59F900D1124B9010E9435
S1131E90790F4091600050916100649FC001659F7B
S1131EA0900D749F900D1124B9010E94790F7BBD90
S1131EB06ABD4091640050916500C49FC001C59FF4
S1131EC0900D1124B9010E94790F40916000509146
S1131ED06100649FC001659F900D749F900D112453
S1131EE0B9010E94790F79BD68BD8FB780688FBF33
S1131EF0FFCF97FB072E16F4009407D077FD09D087
S1131F000E94930F07FC05D03EF4909581959F4F56
S1131F100895709561957F4F0895EE0FFF1F05900A
S1131F20F491E02D0994AA1BBB1B51E107C0AA1F21
S1131F30BB1FA617B70710F0A61BB70B881F991F66
S1131F405A95A9F780959095BC01CD010895F89410
S1051F50FFCFBD
S10B1F52640032003200640057
S9030000FC
